{
  "_format": "hh-sol-artifact-1",
  "contractName": "Certification",
  "sourceName": "contracts/Certification.sol",
  "abi": [
    {
      "inputs": [],
      "stateMutability": "nonpayable",
      "type": "constructor"
    },
    {
      "anonymous": false,
      "inputs": [
        {
          "indexed": false,
          "internalType": "bytes32",
          "name": "_certificateId",
          "type": "bytes32"
        }
      ],
      "name": "certificateGenerated",
      "type": "event"
    },
    {
      "inputs": [
        {
          "internalType": "bytes32",
          "name": "",
          "type": "bytes32"
        }
      ],
      "name": "certificates",
      "outputs": [
        {
          "internalType": "string",
          "name": "candidate_name",
          "type": "string"
        },
        {
          "internalType": "string",
          "name": "org_name",
          "type": "string"
        },
        {
          "internalType": "string",
          "name": "course_name",
          "type": "string"
        },
        {
          "internalType": "string",
          "name": "ipfs_adr",
          "type": "string"
        },
        {
          "internalType": "uint256",
          "name": "expiration_date",
          "type": "uint256"
        }
      ],
      "stateMutability": "view",
      "type": "function"
    },
    {
      "inputs": [
        {
          "internalType": "string",
          "name": "_id",
          "type": "string"
        },
        {
          "internalType": "string",
          "name": "_candidate_name",
          "type": "string"
        },
        {
          "internalType": "string",
          "name": "_org_name",
          "type": "string"
        },
        {
          "internalType": "string",
          "name": "_course_name",
          "type": "string"
        },
        {
          "internalType": "string",
          "name": "_ipfs_adr",
          "type": "string"
        },
        {
          "internalType": "uint256",
          "name": "_expiration_date",
          "type": "uint256"
        }
      ],
      "name": "generateCertificate",
      "outputs": [],
      "stateMutability": "nonpayable",
      "type": "function"
    },
    {
      "inputs": [
        {
          "internalType": "string",
          "name": "_id",
          "type": "string"
        }
      ],
      "name": "getData",
      "outputs": [
        {
          "internalType": "string",
          "name": "",
          "type": "string"
        },
        {
          "internalType": "string",
          "name": "",
          "type": "string"
        },
        {
          "internalType": "string",
          "name": "",
          "type": "string"
        },
        {
          "internalType": "string",
          "name": "",
          "type": "string"
        },
        {
          "internalType": "uint256",
          "name": "",
          "type": "uint256"
        }
      ],
      "stateMutability": "view",
      "type": "function"
    }
  ],
  "bytecode": "0x608060405234801561001057600080fd5b50610e63806100206000396000f3fe608060405234801561001057600080fd5b50600436106100415760003560e01c8063742f06881461004657806395b76f681461007a578063ae55c88814610096575b600080fd5b610060600480360381019061005b9190610893565b6100ca565b604051610071959493929190610972565b60405180910390f35b610094600480360381019061008f9190610b42565b610320565b005b6100b060048036038101906100ab9190610c5b565b61047f565b6040516100c1959493929190610972565b60405180910390f35b60006020528060005260406000206000915090508060000180546100ed90610cd3565b80601f016020809104026020016040519081016040528092919081815260200182805461011990610cd3565b80156101665780601f1061013b57610100808354040283529160200191610166565b820191906000526020600020905b81548152906001019060200180831161014957829003601f168201915b50505050509080600101805461017b90610cd3565b80601f01602080910402602001604051908101604052809291908181526020018280546101a790610cd3565b80156101f45780601f106101c9576101008083540402835291602001916101f4565b820191906000526020600020905b8154815290600101906020018083116101d757829003601f168201915b50505050509080600201805461020990610cd3565b80601f016020809104026020016040519081016040528092919081815260200182805461023590610cd3565b80156102825780601f1061025757610100808354040283529160200191610282565b820191906000526020600020905b81548152906001019060200180831161026557829003601f168201915b50505050509080600301805461029790610cd3565b80601f01602080910402602001604051908101604052809291908181526020018280546102c390610cd3565b80156103105780601f106102e557610100808354040283529160200191610310565b820191906000526020600020905b8154815290600101906020018083116102f357829003601f168201915b5050505050908060040154905085565b600061032b8761077c565b905060008060008381526020019081526020016000206004015414610385576040517f08c379a000000000000000000000000000000000000000000000000000000000815260040161037c90610d77565b60405180910390fd5b6040518060a001604052808781526020018681526020018581526020018481526020018381525060008083815260200190815260200160002060008201518160000190805190602001906103da9291906107a6565b5060208201518160010190805190602001906103f79291906107a6565b5060408201518160020190805190602001906104149291906107a6565b5060608201518160030190805190602001906104319291906107a6565b50608082015181600401559050507ff54e0f0055ffae318a21890316ed523f8a60aa59aaa279dfdcae7176155ec0db8160405161046e9190610da6565b60405180910390a150505050505050565b6060806060806000806104918761077c565b905060008060008381526020019081526020016000206040518060a00160405290816000820180546104c290610cd3565b80601f01602080910402602001604051908101604052809291908181526020018280546104ee90610cd3565b801561053b5780601f106105105761010080835404028352916020019161053b565b820191906000526020600020905b81548152906001019060200180831161051e57829003601f168201915b5050505050815260200160018201805461055490610cd3565b80601f016020809104026020016040519081016040528092919081815260200182805461058090610cd3565b80156105cd5780601f106105a2576101008083540402835291602001916105cd565b820191906000526020600020905b8154815290600101906020018083116105b057829003601f168201915b505050505081526020016002820180546105e690610cd3565b80601f016020809104026020016040519081016040528092919081815260200182805461061290610cd3565b801561065f5780601f106106345761010080835404028352916020019161065f565b820191906000526020600020905b81548152906001019060200180831161064257829003601f168201915b5050505050815260200160038201805461067890610cd3565b80601f01602080910402602001604051908101604052809291908181526020018280546106a490610cd3565b80156106f15780601f106106c6576101008083540402835291602001916106f1565b820191906000526020600020905b8154815290600101906020018083116106d457829003601f168201915b50505050508152602001600482015481525050905060008160800151141561074e576040517f08c379a000000000000000000000000000000000000000000000000000000000815260040161074590610e0d565b60405180910390fd5b8060000151816020015182604001518360600151846080015196509650965096509650505091939590929450565b600080829050600081511415610798576000801b9150506107a1565b60208301519150505b919050565b8280546107b290610cd3565b90600052602060002090601f0160209004810192826107d4576000855561081b565b82601f106107ed57805160ff191683800117855561081b565b8280016001018555821561081b579182015b8281111561081a5782518255916020019190600101906107ff565b5b509050610828919061082c565b5090565b5b8082111561084557600081600090555060010161082d565b5090565b6000604051905090565b600080fd5b600080fd5b6000819050919050565b6108708161085d565b811461087b57600080fd5b50565b60008135905061088d81610867565b92915050565b6000602082840312156108a9576108a8610853565b5b60006108b78482850161087e565b91505092915050565b600081519050919050565b600082825260208201905092915050565b60005b838110156108fa5780820151818401526020810190506108df565b83811115610909576000848401525b50505050565b6000601f19601f8301169050919050565b600061092b826108c0565b61093581856108cb565b93506109458185602086016108dc565b61094e8161090f565b840191505092915050565b6000819050919050565b61096c81610959565b82525050565b600060a082019050818103600083015261098c8188610920565b905081810360208301526109a08187610920565b905081810360408301526109b48186610920565b905081810360608301526109c88185610920565b90506109d76080830184610963565b9695505050505050565b600080fd5b600080fd5b7f4e487b7100000000000000000000000000000000000000000000000000000000600052604160045260246000fd5b610a238261090f565b810181811067ffffffffffffffff82111715610a4257610a416109eb565b5b80604052505050565b6000610a55610849565b9050610a618282610a1a565b919050565b600067ffffffffffffffff821115610a8157610a806109eb565b5b610a8a8261090f565b9050602081019050919050565b82818337600083830152505050565b6000610ab9610ab484610a66565b610a4b565b905082815260208101848484011115610ad557610ad46109e6565b5b610ae0848285610a97565b509392505050565b600082601f830112610afd57610afc6109e1565b5b8135610b0d848260208601610aa6565b91505092915050565b610b1f81610959565b8114610b2a57600080fd5b50565b600081359050610b3c81610b16565b92915050565b60008060008060008060c08789031215610b5f57610b5e610853565b5b600087013567ffffffffffffffff811115610b7d57610b7c610858565b5b610b8989828a01610ae8565b965050602087013567ffffffffffffffff811115610baa57610ba9610858565b5b610bb689828a01610ae8565b955050604087013567ffffffffffffffff811115610bd757610bd6610858565b5b610be389828a01610ae8565b945050606087013567ffffffffffffffff811115610c0457610c03610858565b5b610c1089828a01610ae8565b935050608087013567ffffffffffffffff811115610c3157610c30610858565b5b610c3d89828a01610ae8565b92505060a0610c4e89828a01610b2d565b9150509295509295509295565b600060208284031215610c7157610c70610853565b5b600082013567ffffffffffffffff811115610c8f57610c8e610858565b5b610c9b84828501610ae8565b91505092915050565b7f4e487b7100000000000000000000000000000000000000000000000000000000600052602260045260246000fd5b60006002820490506001821680610ceb57607f821691505b60208210811415610cff57610cfe610ca4565b5b50919050565b7f4365727469666963617465207769746820676976656e20696420616c7265616460008201527f7920657869737473000000000000000000000000000000000000000000000000602082015250565b6000610d616028836108cb565b9150610d6c82610d05565b604082019050919050565b60006020820190508181036000830152610d9081610d54565b9050919050565b610da08161085d565b82525050565b6000602082019050610dbb6000830184610d97565b92915050565b7f4e6f206461746120657869737473000000000000000000000000000000000000600082015250565b6000610df7600e836108cb565b9150610e0282610dc1565b602082019050919050565b60006020820190508181036000830152610e2681610dea565b905091905056fea2646970667358221220ca261f8be8ef1bb0c70958f9536c33f7778c138c0ea5d8894c9338f0d73d8b8364736f6c63430008090033",
  "linkReferences": {},
  "deployedLinkReferences": {}
}